{
  "contractName": "Identity",
  "abi": [
    {
      "constant": true,
      "inputs": [
        {
          "name": "",
          "type": "uint256"
        }
      ],
      "name": "persons",
      "outputs": [
        {
          "name": "name",
          "type": "string"
        },
        {
          "name": "date_of_birth",
          "type": "string"
        },
        {
          "name": "walletAddress",
          "type": "address"
        },
        {
          "name": "idhash",
          "type": "string"
        },
        {
          "name": "password",
          "type": "string"
        }
      ],
      "payable": false,
      "stateMutability": "view",
      "type": "function"
    },
    {
      "constant": true,
      "inputs": [
        {
          "name": "",
          "type": "address"
        }
      ],
      "name": "personIds",
      "outputs": [
        {
          "name": "",
          "type": "uint256"
        }
      ],
      "payable": false,
      "stateMutability": "view",
      "type": "function"
    },
    {
      "inputs": [],
      "payable": false,
      "stateMutability": "nonpayable",
      "type": "constructor"
    },
    {
      "anonymous": false,
      "inputs": [
        {
          "indexed": false,
          "name": "id",
          "type": "uint256"
        }
      ],
      "name": "newUserRegistered",
      "type": "event"
    },
    {
      "anonymous": false,
      "inputs": [
        {
          "indexed": false,
          "name": "id",
          "type": "uint256"
        }
      ],
      "name": "userUpdateEvent",
      "type": "event"
    },
    {
      "constant": false,
      "inputs": [
        {
          "name": "_name",
          "type": "string"
        },
        {
          "name": "_dob",
          "type": "string"
        },
        {
          "name": "_idhash",
          "type": "string"
        },
        {
          "name": "_password",
          "type": "string"
        }
      ],
      "name": "registerUser",
      "outputs": [
        {
          "name": "",
          "type": "uint256"
        }
      ],
      "payable": false,
      "stateMutability": "nonpayable",
      "type": "function"
    },
    {
      "constant": false,
      "inputs": [
        {
          "name": "_idhash",
          "type": "string"
        },
        {
          "name": "_password",
          "type": "string"
        }
      ],
      "name": "updateUser",
      "outputs": [
        {
          "name": "",
          "type": "uint256"
        }
      ],
      "payable": false,
      "stateMutability": "nonpayable",
      "type": "function"
    },
    {
      "constant": true,
      "inputs": [
        {
          "name": "_id",
          "type": "uint256"
        }
      ],
      "name": "getUserById",
      "outputs": [
        {
          "name": "",
          "type": "uint256"
        },
        {
          "name": "",
          "type": "string"
        },
        {
          "name": "",
          "type": "string"
        },
        {
          "name": "",
          "type": "address"
        },
        {
          "name": "",
          "type": "string"
        },
        {
          "name": "",
          "type": "string"
        }
      ],
      "payable": false,
      "stateMutability": "view",
      "type": "function"
    },
    {
      "constant": true,
      "inputs": [],
      "name": "getOwnProfile",
      "outputs": [
        {
          "name": "",
          "type": "uint256"
        },
        {
          "name": "",
          "type": "string"
        },
        {
          "name": "",
          "type": "string"
        },
        {
          "name": "",
          "type": "address"
        },
        {
          "name": "",
          "type": "string"
        },
        {
          "name": "",
          "type": "string"
        }
      ],
      "payable": false,
      "stateMutability": "view",
      "type": "function"
    },
    {
      "constant": true,
      "inputs": [],
      "name": "isRegistered",
      "outputs": [
        {
          "name": "",
          "type": "bool"
        }
      ],
      "payable": false,
      "stateMutability": "view",
      "type": "function"
    },
    {
      "constant": true,
      "inputs": [],
      "name": "totalUsers",
      "outputs": [
        {
          "name": "",
          "type": "uint256"
        }
      ],
      "payable": false,
      "stateMutability": "view",
      "type": "function"
    }
  ],
  "bytecode": "0x60806040523480156200001157600080fd5b506200010560006040805190810160405280600181526020017f20000000000000000000000000000000000000000000000000000000000000008152506040805190810160405280600181526020017f30000000000000000000000000000000000000000000000000000000000000008152506040805190810160405280600181526020017f20000000000000000000000000000000000000000000000000000000000000008152506040805190810160405280600181526020017f20000000000000000000000000000000000000000000000000000000000000008152506200010c640100000000026401000000009004565b50620004ea565b6000806000808873ffffffffffffffffffffffffffffffffffffffff1673ffffffffffffffffffffffffffffffffffffffff1681526020019081526020016000205490506000811415156200016057600080fd5b6001805490506000808973ffffffffffffffffffffffffffffffffffffffff1673ffffffffffffffffffffffffffffffffffffffff16815260200190815260200160002081905550600060018054809190600101620001c0919062000329565b905060a0604051908101604052808881526020018781526020018973ffffffffffffffffffffffffffffffffffffffff168152602001868152602001858152506001828154811015156200021057fe5b906000526020600020906005020160008201518160000190805190602001906200023c9291906200035e565b5060208201518160010190805190602001906200025b9291906200035e565b5060408201518160020160006101000a81548173ffffffffffffffffffffffffffffffffffffffff021916908373ffffffffffffffffffffffffffffffffffffffff1602179055506060820151816003019080519060200190620002c19291906200035e565b506080820151816004019080519060200190620002e09291906200035e565b509050507f2456c02735fb44894660d2af194ca5261385d8ee03675e1d75b0da1300a764cd816040518082815260200191505060405180910390a1809250505095945050505050565b8154818355818111156200035957600502816005028360005260206000209182019101620003589190620003e5565b5b505050565b828054600181600116156101000203166002900490600052602060002090601f016020900481019282601f10620003a157805160ff1916838001178555620003d2565b82800160010185558215620003d2579182015b82811115620003d1578251825591602001919060010190620003b4565b5b509050620003e1919062000476565b5090565b6200047391905b808211156200046f57600080820160006200040891906200049e565b6001820160006200041a91906200049e565b6002820160006101000a81549073ffffffffffffffffffffffffffffffffffffffff02191690556003820160006200045391906200049e565b6004820160006200046591906200049e565b50600501620003ec565b5090565b90565b6200049b91905b80821115620004975760008160009055506001016200047d565b5090565b90565b50805460018160011615610100020316600290046000825580601f10620004c65750620004e7565b601f016020900490600052602060002090810190620004e6919062000476565b5b50565b6118a780620004fa6000396000f3fe60806040526004361061008e576000357c0100000000000000000000000000000000000000000000000000000000900463ffffffff16806322366844146100935780636ed6da9e146100c257806393e54a56146102f4578063a2f9eac614610595578063ad651b54146107c0578063bff1f9e114610825578063dd4a242514610850578063fd1b5158146109c3575b600080fd5b34801561009f57600080fd5b506100a8610bd1565b604051808215151515815260200191505060405180910390f35b3480156100ce57600080fd5b506100fb600480360360208110156100e557600080fd5b8101908080359060200190929190505050610c19565b6040518087815260200180602001806020018673ffffffffffffffffffffffffffffffffffffffff1673ffffffffffffffffffffffffffffffffffffffff168152602001806020018060200185810385528a818151815260200191508051906020019080838360005b8381101561017f578082015181840152602081019050610164565b50505050905090810190601f1680156101ac5780820380516001836020036101000a031916815260200191505b50858103845289818151815260200191508051906020019080838360005b838110156101e55780820151818401526020810190506101ca565b50505050905090810190601f1680156102125780820380516001836020036101000a031916815260200191505b50858103835287818151815260200191508051906020019080838360005b8381101561024b578082015181840152602081019050610230565b50505050905090810190601f1680156102785780820380516001836020036101000a031916815260200191505b50858103825286818151815260200191508051906020019080838360005b838110156102b1578082015181840152602081019050610296565b50505050905090810190601f1680156102de5780820380516001836020036101000a031916815260200191505b509a505050505050505050505060405180910390f35b34801561030057600080fd5b5061057f6004803603608081101561031757600080fd5b810190808035906020019064010000000081111561033457600080fd5b82018360208201111561034657600080fd5b8035906020019184600183028401116401000000008311171561036857600080fd5b91908080601f016020809104026020016040519081016040528093929190818152602001838380828437600081840152601f19601f820116905080830192505050505050509192919290803590602001906401000000008111156103cb57600080fd5b8201836020820111156103dd57600080fd5b803590602001918460018302840111640100000000831117156103ff57600080fd5b91908080601f016020809104026020016040519081016040528093929190818152602001838380828437600081840152601f19601f8201169050808301925050505050505091929192908035906020019064010000000081111561046257600080fd5b82018360208201111561047457600080fd5b8035906020019184600183028401116401000000008311171561049657600080fd5b91908080601f016020809104026020016040519081016040528093929190818152602001838380828437600081840152601f19601f820116905080830192505050505050509192919290803590602001906401000000008111156104f957600080fd5b82018360208201111561050b57600080fd5b8035906020019184600183028401116401000000008311171561052d57600080fd5b91908080601f016020809104026020016040519081016040528093929190818152602001838380828437600081840152601f19601f820116905080830192505050505050509192919290505050610f8f565b6040518082815260200191505060405180910390f35b3480156105a157600080fd5b506105ce600480360360208110156105b857600080fd5b8101908080359060200190929190505050610fa8565b6040518080602001806020018673ffffffffffffffffffffffffffffffffffffffff1673ffffffffffffffffffffffffffffffffffffffff168152602001806020018060200185810385528a818151815260200191508051906020019080838360005b8381101561064c578082015181840152602081019050610631565b50505050905090810190601f1680156106795780820380516001836020036101000a031916815260200191505b50858103845289818151815260200191508051906020019080838360005b838110156106b2578082015181840152602081019050610697565b50505050905090810190601f1680156106df5780820380516001836020036101000a031916815260200191505b50858103835287818151815260200191508051906020019080838360005b838110156107185780820151818401526020810190506106fd565b50505050905090810190601f1680156107455780820380516001836020036101000a031916815260200191505b50858103825286818151815260200191508051906020019080838360005b8381101561077e578082015181840152602081019050610763565b50505050905090810190601f1680156107ab5780820380516001836020036101000a031916815260200191505b50995050505050505050505060405180910390f35b3480156107cc57600080fd5b5061080f600480360360208110156107e357600080fd5b81019080803573ffffffffffffffffffffffffffffffffffffffff16906020019092919050505061126d565b6040518082815260200191505060405180910390f35b34801561083157600080fd5b5061083a611285565b6040518082815260200191505060405180910390f35b34801561085c57600080fd5b506109ad6004803603604081101561087357600080fd5b810190808035906020019064010000000081111561089057600080fd5b8201836020820111156108a257600080fd5b803590602001918460018302840111640100000000831117156108c457600080fd5b91908080601f016020809104026020016040519081016040528093929190818152602001838380828437600081840152601f19601f8201169050808301925050505050505091929192908035906020019064010000000081111561092757600080fd5b82018360208201111561093957600080fd5b8035906020019184600183028401116401000000008311171561095b57600080fd5b91908080601f016020809104026020016040519081016040528093929190818152602001838380828437600081840152601f19601f820116905080830192505050505050509192919290505050611294565b6040518082815260200191505060405180910390f35b3480156109cf57600080fd5b506109d8611381565b6040518087815260200180602001806020018673ffffffffffffffffffffffffffffffffffffffff1673ffffffffffffffffffffffffffffffffffffffff168152602001806020018060200185810385528a818151815260200191508051906020019080838360005b83811015610a5c578082015181840152602081019050610a41565b50505050905090810190601f168015610a895780820380516001836020036101000a031916815260200191505b50858103845289818151815260200191508051906020019080838360005b83811015610ac2578082015181840152602081019050610aa7565b50505050905090810190601f168015610aef5780820380516001836020036101000a031916815260200191505b50858103835287818151815260200191508051906020019080838360005b83811015610b28578082015181840152602081019050610b0d565b50505050905090810190601f168015610b555780820380516001836020036101000a031916815260200191505b50858103825286818151815260200191508051906020019080838360005b83811015610b8e578082015181840152602081019050610b73565b50505050905090810190601f168015610bbb5780820380516001836020036101000a031916815260200191505b509a505050505050505050505060405180910390f35b6000806000803373ffffffffffffffffffffffffffffffffffffffff1673ffffffffffffffffffffffffffffffffffffffff1681526020019081526020016000205411905090565b600060608060006060806000871180610c3757506001805490508711155b1515610c4257600080fd5b610c4a611610565b600188815481101515610c5957fe5b906000526020600020906005020160a06040519081016040529081600082018054600181600116156101000203166002900480601f016020809104026020016040519081016040528092919081815260200182805460018160011615610100020316600290048015610d0c5780601f10610ce157610100808354040283529160200191610d0c565b820191906000526020600020905b815481529060010190602001808311610cef57829003601f168201915b50505050508152602001600182018054600181600116156101000203166002900480601f016020809104026020016040519081016040528092919081815260200182805460018160011615610100020316600290048015610dae5780601f10610d8357610100808354040283529160200191610dae565b820191906000526020600020905b815481529060010190602001808311610d9157829003601f168201915b505050505081526020016002820160009054906101000a900473ffffffffffffffffffffffffffffffffffffffff1673ffffffffffffffffffffffffffffffffffffffff1673ffffffffffffffffffffffffffffffffffffffff168152602001600382018054600181600116156101000203166002900480601f016020809104026020016040519081016040528092919081815260200182805460018160011615610100020316600290048015610ea65780601f10610e7b57610100808354040283529160200191610ea6565b820191906000526020600020905b815481529060010190602001808311610e8957829003601f168201915b50505050508152602001600482018054600181600116156101000203166002900480601f016020809104026020016040519081016040528092919081815260200182805460018160011615610100020316600290048015610f485780601f10610f1d57610100808354040283529160200191610f48565b820191906000526020600020905b815481529060010190602001808311610f2b57829003601f168201915b505050505081525050905087816000015182602001518360400151846060015185608001518494508393508191508090509650965096509650965096505091939550919395565b6000610f9e33868686866113ff565b9050949350505050565b600181815481101515610fb757fe5b9060005260206000209060050201600091509050806000018054600181600116156101000203166002900480601f0160208091040260200160405190810160405280929190818152602001828054600181600116156101000203166002900480156110635780601f1061103857610100808354040283529160200191611063565b820191906000526020600020905b81548152906001019060200180831161104657829003601f168201915b505050505090806001018054600181600116156101000203166002900480601f0160208091040260200160405190810160405280929190818152602001828054600181600116156101000203166002900480156111015780601f106110d657610100808354040283529160200191611101565b820191906000526020600020905b8154815290600101906020018083116110e457829003601f168201915b5050505050908060020160009054906101000a900473ffffffffffffffffffffffffffffffffffffffff1690806003018054600181600116156101000203166002900480601f0160208091040260200160405190810160405280929190818152602001828054600181600116156101000203166002900480156111c55780601f1061119a576101008083540402835291602001916111c5565b820191906000526020600020905b8154815290600101906020018083116111a857829003601f168201915b505050505090806004018054600181600116156101000203166002900480601f0160208091040260200160405190810160405280929190818152602001828054600181600116156101000203166002900480156112635780601f1061123857610100808354040283529160200191611263565b820191906000526020600020905b81548152906001019060200180831161124657829003601f168201915b5050505050905085565b60006020528060005260406000206000915090505481565b60006001808054905003905090565b600061129e610bd1565b15156112a957600080fd5b60008060003373ffffffffffffffffffffffffffffffffffffffff1673ffffffffffffffffffffffffffffffffffffffff16815260200190815260200160002054905060006001828154811015156112fd57fe5b9060005260206000209060050201905084816003019080519060200190611325929190611656565b508381600401908051906020019061133e929190611656565b507f179dda4b314caed68129a8b8bbd77c7a4fb092c2d9fb3de452a4f8e4839dc876826040518082815260200191505060405180910390a1819250505092915050565b60006060806000606080611393610bd1565b151561139e57600080fd5b60008060003373ffffffffffffffffffffffffffffffffffffffff1673ffffffffffffffffffffffffffffffffffffffff1681526020019081526020016000205490506113ea81610c19565b96509650965096509650965050909192939495565b6000806000808873ffffffffffffffffffffffffffffffffffffffff1673ffffffffffffffffffffffffffffffffffffffff16815260200190815260200160002054905060008114151561145257600080fd5b6001805490506000808973ffffffffffffffffffffffffffffffffffffffff1673ffffffffffffffffffffffffffffffffffffffff168152602001908152602001600020819055506000600180548091906001016114b091906116d6565b905060a0604051908101604052808881526020018781526020018973ffffffffffffffffffffffffffffffffffffffff168152602001868152602001858152506001828154811015156114ff57fe5b90600052602060002090600502016000820151816000019080519060200190611529929190611708565b506020820151816001019080519060200190611546929190611708565b5060408201518160020160006101000a81548173ffffffffffffffffffffffffffffffffffffffff021916908373ffffffffffffffffffffffffffffffffffffffff16021790555060608201518160030190805190602001906115aa929190611708565b5060808201518160040190805190602001906115c7929190611708565b509050507f2456c02735fb44894660d2af194ca5261385d8ee03675e1d75b0da1300a764cd816040518082815260200191505060405180910390a1809250505095945050505050565b60a0604051908101604052806060815260200160608152602001600073ffffffffffffffffffffffffffffffffffffffff16815260200160608152602001606081525090565b828054600181600116156101000203166002900490600052602060002090601f016020900481019282601f1061169757805160ff19168380011785556116c5565b828001600101855582156116c5579182015b828111156116c45782518255916020019190600101906116a9565b5b5090506116d29190611788565b5090565b8154818355818111156117035760050281600502836000526020600020918201910161170291906117ad565b5b505050565b828054600181600116156101000203166002900490600052602060002090601f016020900481019282601f1061174957805160ff1916838001178555611777565b82800160010185558215611777579182015b8281111561177657825182559160200191906001019061175b565b5b5090506117849190611788565b5090565b6117aa91905b808211156117a657600081600090555060010161178e565b5090565b90565b61183091905b8082111561182c57600080820160006117cc9190611833565b6001820160006117dc9190611833565b6002820160006101000a81549073ffffffffffffffffffffffffffffffffffffffff02191690556003820160006118139190611833565b6004820160006118239190611833565b506005016117b3565b5090565b90565b50805460018160011615610100020316600290046000825580601f106118595750611878565b601f0160209004906000526020600020908101906118779190611788565b5b5056fea165627a7a7230582034059cc16ad4e7a0f25b24cad07b5686370a283fd03a1732d434fe20c5333b100029",
  "source": "pragma solidity ^0.5.0;\n\ncontract Identity{\n\n    struct Person{\n            string name;\n            string date_of_birth;\n            address walletAddress;\n            string idhash;//Id ipns address\n            string password;//Id password\n    }\n\n    mapping (address =>uint ) public personIds;\n\n\n    Person[] public persons;\n\n    event newUserRegistered(uint id);\n    event userUpdateEvent(uint id);\n\n    modifier checkSenderIsRegistered{\n        require (isRegistered());\n        _;\n    }\n\n    constructor() public {\n      addUser(address(0x000000000), \" \", '0',\" \",\" \");\n\n    }\n    function registerUser( string memory _name, string memory _dob, string memory _idhash, string memory _password) public\n    returns(uint)\n    {\n      return addUser(msg.sender, _name, _dob, _idhash,_password);\n    }\n\n    function addUser( address _wAddr, string memory _name, string memory _dob, string memory _idhash, string memory _password) private\n    returns(uint)\n    {\n      uint userId = personIds[_wAddr];\n      require(userId == 0);\n\n      personIds[_wAddr] = persons.length;\n      uint newUserId = persons.length++;\n\n      persons[newUserId] = Person({\n        name:_name,\n        date_of_birth : _dob,\n        walletAddress : _wAddr,\n        idhash : _idhash,\n        password : _password\n        });\n\n        emit newUserRegistered(newUserId);\n\n        return newUserId;\n    }\n    function updateUser(string memory _idhash, string memory _password) checkSenderIsRegistered public\n    returns(uint){\n      uint userId = personIds[msg.sender];\n      Person storage person = persons[userId];\n\n      person.idhash = _idhash;\n      person.password = _password;\n\n      emit userUpdateEvent(userId);\n\n      return userId;\n    }\n\n    function getUserById(uint _id) public view\n    returns(\n      uint,\n      string memory,\n      string memory,\n      address,\n      string memory,\n      string memory\n      ){\n        require((_id > 0 ) || (_id <= persons.length));\n\n        Person memory i = persons[_id];\n\n        return(\n          _id,\n          i.name,\n          i.date_of_birth,\n          i.walletAddress,\n          i.idhash,\n          i.password\n          );\n      }\n\n      function getOwnProfile() checkSenderIsRegistered public view\n        returns(\n          uint,\n          string memory,\n          string memory,\n          address,\n          string memory,\n          string memory\n          ) {\n            uint id = personIds[msg.sender];\n\n            return getUserById(id);\n          }\n\n      function isRegistered() public view returns (bool){\n        return (personIds[msg.sender] > 0);\n      }\n\n      function totalUsers() public view returns (uint){\n        return persons.length - 1;\n      }\n}\n",
  "sourcePath": "/home/gh0st/Work/idm/idm/contracts/Identity.sol",
  "compiler": {
    "name": "solc",
    "version": "0.5.0+commit.1d4f565a.Emscripten.clang"
  },
  "schemaVersion": "3.0.9",
  "updatedAt": "2019-05-19T17:20:07.928Z",
  "devdoc": {
    "methods": {}
  },
  "userdoc": {
    "methods": {}
  }
}